{
  "contractName": "FalseRandomNumber",
  "abi": [
    {
      "inputs": [],
      "name": "getRNGNumber",
      "outputs": [
        {
          "internalType": "uint256",
          "name": "ret",
          "type": "uint256"
        }
      ],
      "stateMutability": "view",
      "type": "function"
    }
  ],
  "bytecode": "0x61012a610053600b82828239805160001a607314610046577f4e487b7100000000000000000000000000000000000000000000000000000000600052600060045260246000fd5b30600052607381538281f3fe730000000000000000000000000000000000000000301460806040526004361060335760003560e01c80634cc146c6146038575b600080fd5b603e6052565b604051604991906082565b60405180910390f35b600080429050620f4240816065919060ca565b91505090565b6000819050919050565b607c81606b565b82525050565b6000602082019050609560008301846075565b92915050565b7f4e487b7100000000000000000000000000000000000000000000000000000000600052601260045260246000fd5b600060d382606b565b915060dc83606b565b92508260e95760e8609b565b5b82820490509291505056fea2646970667358221220efad6a334641612d47518af5826043c4f0b46e0205e01c7185a1f6aac9913bf964736f6c634300080a0033",
  "immutableReferences": {},
  "source": "pragma solidity >=0.4.22 <0.9.0;\r\nimport \"@openzeppelin/contracts/utils/Strings.sol\";\r\n\r\n\r\nlibrary FalseRandomNumber  {\r\n\r\n       function getRNGNumber() external view  returns (uint ret){\r\n          \r\n           uint time= block.timestamp;\r\n           ret = time /1000000 ;\r\n           return ret;\r\n    }\r\n}\r\n\r\n\r\n\r\n",
  "sourcePath": "E:\\Workbench_Moula\\crypto\\dev\\Lottery\\contracts\\FalseRandomNumber.sol",
  "compiler": {
    "name": "solc",
    "version": "0.8.10+commit.fc410830.Emscripten.clang"
  },
  "schemaVersion": "3.4.4",
  "updatedAt": "2022-04-02T12:41:18.708Z",
  "devdoc": {
    "kind": "dev",
    "methods": {},
    "version": 1
  },
  "userdoc": {
    "kind": "user",
    "methods": {},
    "version": 1
  }
}