{
  "contractName": "SumTreeLottery",
  "abi": [
    {
      "inputs": [
        {
          "internalType": "address",
          "name": "_rngContract",
          "type": "address"
        },
        {
          "internalType": "uint256",
          "name": "_lotteryLength",
          "type": "uint256"
        }
      ],
      "stateMutability": "nonpayable",
      "type": "constructor"
    },
    {
      "anonymous": false,
      "inputs": [
        {
          "indexed": true,
          "internalType": "address",
          "name": "previousOwner",
          "type": "address"
        },
        {
          "indexed": true,
          "internalType": "address",
          "name": "newOwner",
          "type": "address"
        }
      ],
      "name": "OwnershipTransferred",
      "type": "event"
    },
    {
      "anonymous": false,
      "inputs": [
        {
          "indexed": false,
          "internalType": "address",
          "name": "account",
          "type": "address"
        }
      ],
      "name": "Paused",
      "type": "event"
    },
    {
      "anonymous": false,
      "inputs": [
        {
          "indexed": false,
          "internalType": "address",
          "name": "account",
          "type": "address"
        }
      ],
      "name": "Unpaused",
      "type": "event"
    },
    {
      "inputs": [],
      "name": "owner",
      "outputs": [
        {
          "internalType": "address",
          "name": "",
          "type": "address"
        }
      ],
      "stateMutability": "view",
      "type": "function"
    },
    {
      "inputs": [],
      "name": "paused",
      "outputs": [
        {
          "internalType": "bool",
          "name": "",
          "type": "bool"
        }
      ],
      "stateMutability": "view",
      "type": "function"
    },
    {
      "inputs": [],
      "name": "renounceOwnership",
      "outputs": [],
      "stateMutability": "nonpayable",
      "type": "function"
    },
    {
      "inputs": [
        {
          "internalType": "address",
          "name": "newOwner",
          "type": "address"
        }
      ],
      "name": "transferOwnership",
      "outputs": [],
      "stateMutability": "nonpayable",
      "type": "function"
    },
    {
      "inputs": [
        {
          "internalType": "address",
          "name": "_newAddress",
          "type": "address"
        }
      ],
      "name": "setRngContract",
      "outputs": [],
      "stateMutability": "nonpayable",
      "type": "function"
    },
    {
      "inputs": [],
      "name": "deposit",
      "outputs": [
        {
          "internalType": "bytes32",
          "name": "",
          "type": "bytes32"
        }
      ],
      "stateMutability": "payable",
      "type": "function"
    },
    {
      "inputs": [
        {
          "internalType": "address",
          "name": "staker",
          "type": "address"
        }
      ],
      "name": "getStake",
      "outputs": [
        {
          "internalType": "uint256",
          "name": "",
          "type": "uint256"
        }
      ],
      "stateMutability": "view",
      "type": "function"
    },
    {
      "inputs": [],
      "name": "getCurrentLottery",
      "outputs": [
        {
          "components": [
            {
              "internalType": "bytes32",
              "name": "sumTree_key",
              "type": "bytes32"
            },
            {
              "internalType": "uint256",
              "name": "endTime",
              "type": "uint256"
            }
          ],
          "internalType": "struct SumTreeLottery.Lottery",
          "name": "",
          "type": "tuple"
        }
      ],
      "stateMutability": "view",
      "type": "function"
    },
    {
      "inputs": [],
      "name": "getLotteryLength",
      "outputs": [
        {
          "internalType": "uint256",
          "name": "",
          "type": "uint256"
        }
      ],
      "stateMutability": "view",
      "type": "function"
    },
    {
      "inputs": [
        {
          "internalType": "bytes32",
          "name": "key",
          "type": "bytes32"
        }
      ],
      "name": "getLottery",
      "outputs": [
        {
          "components": [
            {
              "internalType": "bytes32",
              "name": "sumTree_key",
              "type": "bytes32"
            },
            {
              "internalType": "uint256",
              "name": "endTime",
              "type": "uint256"
            }
          ],
          "internalType": "struct SumTreeLottery.Lottery",
          "name": "",
          "type": "tuple"
        }
      ],
      "stateMutability": "view",
      "type": "function"
    },
    {
      "inputs": [
        {
          "internalType": "uint256",
          "name": "newLength",
          "type": "uint256"
        }
      ],
      "name": "setLotteryLength",
      "outputs": [],
      "stateMutability": "payable",
      "type": "function"
    },
    {
      "inputs": [],
      "name": "getEndTime",
      "outputs": [
        {
          "internalType": "uint256",
          "name": "",
          "type": "uint256"
        }
      ],
      "stateMutability": "view",
      "type": "function"
    }
  ],
  "bytecode": "0x60806040523480156200001157600080fd5b50604051620026f8380380620026f8833981810160405281019062000037919062000540565b620000576200004b620000da60201b60201c565b620000e260201b60201c565b60008060146101000a81548160ff0219169083151502179055508060018190555081600260006101000a81548173ffffffffffffffffffffffffffffffffffffffff021916908373ffffffffffffffffffffffffffffffffffffffff1602179055506001600481905550620000d1620001a660201b60201c565b505050620007f7565b600033905090565b60008060009054906101000a900473ffffffffffffffffffffffffffffffffffffffff169050816000806101000a81548173ffffffffffffffffffffffffffffffffffffffff021916908373ffffffffffffffffffffffffffffffffffffffff1602179055508173ffffffffffffffffffffffffffffffffffffffff168173ffffffffffffffffffffffffffffffffffffffff167f8be0079c531659141344cd1fd0a4f28419497f9722a3daafe3b4186f6b6457e060405160405180910390a35050565b60008060035460001b90506000600660008381526020019081526020016000209050600081600101541462000212576040517f08c379a00000000000000000000000000000000000000000000000000000000081526004016200020990620005e8565b60405180910390fd5b818160000181905550600154426200022b919062000639565b81600101819055506200024d60098360026200027660201b6200080f1760201c565b8160058190555060036000815480929190620002699062000696565b9190505550819250505090565b600083600001600084815260200190815260200160002090506000816000015414620002d9576040517f08c379a0000000000000000000000000000000000000000000000000000000008152600401620002d09062000734565b60405180910390fd5b600182116200031f576040517f08c379a00000000000000000000000000000000000000000000000000000000081526004016200031690620007a6565b60405180910390fd5b818160000181905550600067ffffffffffffffff811115620003465762000345620007c8565b5b604051908082528060200260200182016040528015620003755781602001602082028036833780820191505090505b508160010190805190602001906200038f9291906200042a565b50600067ffffffffffffffff811115620003ae57620003ad620007c8565b5b604051908082528060200260200182016040528015620003dd5781602001602082028036833780820191505090505b50816002019080519060200190620003f79291906200042a565b50806002016000908060018154018082558091505060019003906000526020600020016000909190919091505550505050565b82805482825590600052602060002090810192821562000469579160200282015b82811115620004685782518255916020019190600101906200044b565b5b5090506200047891906200047c565b5090565b5b80821115620004975760008160009055506001016200047d565b5090565b600080fd5b600073ffffffffffffffffffffffffffffffffffffffff82169050919050565b6000620004cd82620004a0565b9050919050565b620004df81620004c0565b8114620004eb57600080fd5b50565b600081519050620004ff81620004d4565b92915050565b6000819050919050565b6200051a8162000505565b81146200052657600080fd5b50565b6000815190506200053a816200050f565b92915050565b600080604083850312156200055a57620005596200049b565b5b60006200056a85828601620004ee565b92505060206200057d8582860162000529565b9150509250929050565b600082825260208201905092915050565b7f6578697374652064656a61000000000000000000000000000000000000000000600082015250565b6000620005d0600b8362000587565b9150620005dd8262000598565b602082019050919050565b600060208201905081810360008301526200060381620005c1565b9050919050565b7f4e487b7100000000000000000000000000000000000000000000000000000000600052601160045260246000fd5b6000620006468262000505565b9150620006538362000505565b9250827fffffffffffffffffffffffffffffffffffffffffffffffffffffffffffffffff038211156200068b576200068a6200060a565b5b828201905092915050565b6000620006a38262000505565b91507fffffffffffffffffffffffffffffffffffffffffffffffffffffffffffffffff821415620006d957620006d86200060a565b5b600182019050919050565b7f5472656520616c7265616479206578697374732e000000000000000000000000600082015250565b60006200071c60148362000587565b91506200072982620006e4565b602082019050919050565b600060208201905081810360008301526200074f816200070d565b9050919050565b7f4b206d7573742062652067726561746572207468616e206f6e652e0000000000600082015250565b60006200078e601b8362000587565b91506200079b8262000756565b602082019050919050565b60006020820190508181036000830152620007c1816200077f565b9050919050565b7f4e487b7100000000000000000000000000000000000000000000000000000000600052604160045260246000fd5b611ef180620008076000396000f3fe6080604052600436106100a75760003560e01c80637a766460116100645780637a766460146101985780638da5cb5b146101d5578063d0e30db014610200578063d122159b1461021e578063dfd84d9b1461025b578063f2fde38b14610277576100a7565b8063439f5ac2146100ac578063576aaa2b146100d75780635c975abb146101025780635f2ef3b01461012d578063715018a6146101585780637986ffc61461016f575b600080fd5b3480156100b857600080fd5b506100c16102a0565b6040516100ce91906115c9565b60405180910390f35b3480156100e357600080fd5b506100ec6102c0565b6040516100f991906115c9565b60405180910390f35b34801561010e57600080fd5b506101176102ca565b60405161012491906115ff565b60405180910390f35b34801561013957600080fd5b506101426102e0565b60405161014f9190611671565b60405180910390f35b34801561016457600080fd5b5061016d610321565b005b34801561017b57600080fd5b50610196600480360381019061019191906116ef565b6103a9565b005b3480156101a457600080fd5b506101bf60048036038101906101ba91906116ef565b6103ac565b6040516101cc91906115c9565b60405180910390f35b3480156101e157600080fd5b506101ea61040d565b6040516101f7919061172b565b60405180910390f35b610208610436565b6040516102159190611755565b60405180910390f35b34801561022a57600080fd5b506102456004803603810190610240919061179c565b610650565b6040516102529190611671565b60405180910390f35b610275600480360381019061027091906117f5565b610691565b005b34801561028357600080fd5b5061029e600480360381019061029991906116ef565b610717565b005b600060066000600554815260200190815260200160002060010154905090565b6000600154905090565b60008060149054906101000a900460ff16905090565b6102e8611529565b60066000600554815260200190815260200160002060405180604001604052908160008201548152602001600182015481525050905090565b6103296109b1565b73ffffffffffffffffffffffffffffffffffffffff1661034761040d565b73ffffffffffffffffffffffffffffffffffffffff161461039d576040517f08c379a00000000000000000000000000000000000000000000000000000000081526004016103949061187f565b60405180910390fd5b6103a760006109b9565b565b50565b600080600760008473ffffffffffffffffffffffffffffffffffffffff1673ffffffffffffffffffffffffffffffffffffffff1681526020019081526020016000205490506000610401600960055484610a7d565b90508092505050919050565b60008060009054906101000a900473ffffffffffffffffffffffffffffffffffffffff16905090565b60008034905042600660006005548152602001908152602001600020600101541015610472576000610466610af0565b9050809250505061064d565b6000801b600760003373ffffffffffffffffffffffffffffffffffffffff1673ffffffffffffffffffffffffffffffffffffffff1681526020019081526020016000205414156105795760045460001b600760003373ffffffffffffffffffffffffffffffffffffffff1673ffffffffffffffffffffffffffffffffffffffff16815260200190815260200160002081905550336008600060045460001b815260200190815260200160002060006101000a81548173ffffffffffffffffffffffffffffffffffffffff021916908373ffffffffffffffffffffffffffffffffffffffff1602179055506004600081548092919061056f906118ce565b91905055506105da565b60006105c86009600554600760003373ffffffffffffffffffffffffffffffffffffffff1673ffffffffffffffffffffffffffffffffffffffff16815260200190815260200160002054610a7d565b905080826105d69190611917565b9150505b610628600960055483600760003373ffffffffffffffffffffffffffffffffffffffff1673ffffffffffffffffffffffffffffffffffffffff16815260200190815260200160002054610c9f565b7f42455400000000000000000000000000000000000000000000000000000000009150505b90565b610658611529565b60066000838152602001908152602001600020604051806040016040529081600082015481526020016001820154815250509050919050565b6106996109b1565b73ffffffffffffffffffffffffffffffffffffffff166106b761040d565b73ffffffffffffffffffffffffffffffffffffffff161461070d576040517f08c379a00000000000000000000000000000000000000000000000000000000081526004016107049061187f565b60405180910390fd5b8060018190555050565b61071f6109b1565b73ffffffffffffffffffffffffffffffffffffffff1661073d61040d565b73ffffffffffffffffffffffffffffffffffffffff1614610793576040517f08c379a000000000000000000000000000000000000000000000000000000000815260040161078a9061187f565b60405180910390fd5b600073ffffffffffffffffffffffffffffffffffffffff168173ffffffffffffffffffffffffffffffffffffffff161415610803576040517f08c379a00000000000000000000000000000000000000000000000000000000081526004016107fa906119df565b60405180910390fd5b61080c816109b9565b50565b60008360000160008481526020019081526020016000209050600081600001541461086f576040517f08c379a000000000000000000000000000000000000000000000000000000000815260040161086690611a4b565b60405180910390fd5b600182116108b2576040517f08c379a00000000000000000000000000000000000000000000000000000000081526004016108a990611ab7565b60405180910390fd5b818160000181905550600067ffffffffffffffff8111156108d6576108d5611ad7565b5b6040519080825280602002602001820160405280156109045781602001602082028036833780820191505090505b5081600101908051906020019061091c929190611546565b50600067ffffffffffffffff81111561093857610937611ad7565b5b6040519080825280602002602001820160405280156109665781602001602082028036833780820191505090505b5081600201908051906020019061097e929190611546565b50806002016000908060018154018082558091505060019003906000526020600020016000909190919091505550505050565b600033905090565b60008060009054906101000a900473ffffffffffffffffffffffffffffffffffffffff169050816000806101000a81548173ffffffffffffffffffffffffffffffffffffffff021916908373ffffffffffffffffffffffffffffffffffffffff1602179055508173ffffffffffffffffffffffffffffffffffffffff168173ffffffffffffffffffffffffffffffffffffffff167f8be0079c531659141344cd1fd0a4f28419497f9722a3daafe3b4186f6b6457e060405160405180910390a35050565b600080846000016000858152602001908152602001600020905060008160030160008581526020019081526020016000205490506000811415610ac35760009250610ae7565b816002018181548110610ad957610ad8611b06565b5b906000526020600020015492505b50509392505050565b6000610afa6110c1565b600073__FalseRandomNumber_____________________634cc146c66040518163ffffffff1660e01b8152600401602060405180830381865af4158015610b45573d6000803e3d6000fd5b505050506040513d601f19601f82011682018060405250810190610b699190611b4a565b90506000811415610baf576040517f08c379a0000000000000000000000000000000000000000000000000000000008152600401610ba690611bc3565b60405180910390fd5b6000610bbf600960055484611164565b90506000806008600084815260200190815260200160002060009054906101000a900473ffffffffffffffffffffffffffffffffffffffff1673ffffffffffffffffffffffffffffffffffffffff16610c1b6009600554611292565b604051610c2790611c14565b60006040518083038185875af1925050503d8060008114610c64576040519150601f19603f3d011682016040523d82523d6000602084013e610c69565b606091505b5091509150600015158215151415610c8457610c836110c1565b5b610c8c6112f2565b50610c956113ae565b8294505050505090565b6000846000016000858152602001908152602001600020905060008160030160008481526020019081526020016000205490506000811415610f075760008414610f0257600082600101805490501415610e3957816002018054905090508160020184908060018154018082558091505060019003906000526020600020016000909190919091505560018114158015610d54575060008260000154600183610d489190611c29565b610d529190611c8c565b145b15610e34576000826000015482610d6b9190611cbd565b905060008360040160008381526020019081526020016000205490506000600184610d969190611917565b905084600201856002018481548110610db257610db1611b06565b5b9060005260206000200154908060018154018082558091505060019003906000526020600020016000909190919091505584600401600084815260200190815260200160002060009055808560030160008481526020019081526020016000208190555081856004016000838152602001908152602001600020819055505050505b610ebf565b8160010160018360010180549050610e519190611c29565b81548110610e6257610e61611b06565b5b9060005260206000200154905081600101805480610e8357610e82611cee565b5b6001900381819060005260206000200160009055905583826002018281548110610eb057610eaf611b06565b5b90600052602060002001819055505b80826003016000858152602001908152602001600020819055508282600401600083815260200190815260200160002081905550610f0186868360018861144f565b5b6110b9565b6000841415610fcc576000826002018281548110610f2857610f27611b06565b5b906000526020600020015490506000836002018381548110610f4d57610f4c611b06565b5b9060005260206000200181905550826001018290806001815401808255809150506001900390600052602060002001600090919091909150558260030160008581526020019081526020016000206000905582600401600083815260200190815260200160002060009055610fc687878460008561144f565b506110b8565b816002018181548110610fe257610fe1611b06565b5b906000526020600020015484146110b75760008483600201838154811061100c5761100b611b06565b5b906000526020600020015411159050600081611053578584600201848154811061103957611038611b06565b5b906000526020600020015461104e9190611c29565b611080565b83600201838154811061106957611068611b06565b5b90600052602060002001548661107f9190611c29565b5b90508584600201848154811061109957611098611b06565b5b90600052602060002001819055506110b4888885858561144f565b50505b5b5b505050505050565b6110c96102ca565b15611109576040517f08c379a000000000000000000000000000000000000000000000000000000000815260040161110090611d69565b60405180910390fd5b6001600060146101000a81548160ff0219169083151502179055507f62e78cea01bee320cd4e420270b5ea74000d11b0c9f74754ebdbfc544b05a25861114d6109b1565b60405161115a919061172b565b60405180910390a1565b60008084600001600085815260200190815260200160002090506000808260020160008154811061119857611197611b06565b5b9060005260206000200154856111ae9190611c8c565b90505b826002018054905060018385600001546111cb9190611d89565b6111d59190611917565b1015611270576000600190505b8360000154811161126a576000818486600001546112009190611d89565b61120a9190611917565b9050600085600201828154811061122457611223611b06565b5b9060005260206000200154905080841061124b5780846112449190611c29565b9350611255565b819450505061126a565b50508080611262906118ce565b9150506111e2565b506111b1565b8260040160008381526020019081526020016000205493505050509392505050565b60008083600001600084815260200190815260200160002090506000816002018054905014156112c65760009150506112ec565b806002016000815481106112dd576112dc611b06565b5b90600052602060002001549150505b92915050565b60008060035460001b90506000600660008381526020019081526020016000209050600081600101541461135b576040517f08c379a000000000000000000000000000000000000000000000000000000000815260040161135290611e2f565b60405180910390fd5b818160000181905550600154426113729190611917565b8160010181905550611387600983600261080f565b81600581905550600360008154809291906113a1906118ce565b9190505550819250505090565b6113b66102ca565b6113f5576040517f08c379a00000000000000000000000000000000000000000000000000000000081526004016113ec90611e9b565b60405180910390fd5b60008060146101000a81548160ff0219169083151502179055507f5db9ee0a495bf2e6ff9c91a7834c1ba4fdd244a5e8aa4e537bd38aeae4b073aa6114386109b1565b604051611445919061172b565b60405180910390a1565b6000856000016000868152602001908152602001600020905060008490505b600081146115205781600001546001826114889190611c29565b6114929190611cbd565b9050836114ca57828260020182815481106114b0576114af611b06565b5b90600052602060002001546114c59190611c29565b6114f7565b828260020182815481106114e1576114e0611b06565b5b90600052602060002001546114f69190611917565b5b82600201828154811061150d5761150c611b06565b5b906000526020600020018190555061146e565b50505050505050565b604051806040016040528060008019168152602001600081525090565b828054828255906000526020600020908101928215611582579160200282015b82811115611581578251825591602001919060010190611566565b5b50905061158f9190611593565b5090565b5b808211156115ac576000816000905550600101611594565b5090565b6000819050919050565b6115c3816115b0565b82525050565b60006020820190506115de60008301846115ba565b92915050565b60008115159050919050565b6115f9816115e4565b82525050565b600060208201905061161460008301846115f0565b92915050565b6000819050919050565b61162d8161161a565b82525050565b61163c816115b0565b82525050565b6040820160008201516116586000850182611624565b50602082015161166b6020850182611633565b50505050565b60006040820190506116866000830184611642565b92915050565b600080fd5b600073ffffffffffffffffffffffffffffffffffffffff82169050919050565b60006116bc82611691565b9050919050565b6116cc816116b1565b81146116d757600080fd5b50565b6000813590506116e9816116c3565b92915050565b6000602082840312156117055761170461168c565b5b6000611713848285016116da565b91505092915050565b611725816116b1565b82525050565b6000602082019050611740600083018461171c565b92915050565b61174f8161161a565b82525050565b600060208201905061176a6000830184611746565b92915050565b6117798161161a565b811461178457600080fd5b50565b60008135905061179681611770565b92915050565b6000602082840312156117b2576117b161168c565b5b60006117c084828501611787565b91505092915050565b6117d2816115b0565b81146117dd57600080fd5b50565b6000813590506117ef816117c9565b92915050565b60006020828403121561180b5761180a61168c565b5b6000611819848285016117e0565b91505092915050565b600082825260208201905092915050565b7f4f776e61626c653a2063616c6c6572206973206e6f7420746865206f776e6572600082015250565b6000611869602083611822565b915061187482611833565b602082019050919050565b600060208201905081810360008301526118988161185c565b9050919050565b7f4e487b7100000000000000000000000000000000000000000000000000000000600052601160045260246000fd5b60006118d9826115b0565b91507fffffffffffffffffffffffffffffffffffffffffffffffffffffffffffffffff82141561190c5761190b61189f565b5b600182019050919050565b6000611922826115b0565b915061192d836115b0565b9250827fffffffffffffffffffffffffffffffffffffffffffffffffffffffffffffffff038211156119625761196161189f565b5b828201905092915050565b7f4f776e61626c653a206e6577206f776e657220697320746865207a65726f206160008201527f6464726573730000000000000000000000000000000000000000000000000000602082015250565b60006119c9602683611822565b91506119d48261196d565b604082019050919050565b600060208201905081810360008301526119f8816119bc565b9050919050565b7f5472656520616c7265616479206578697374732e000000000000000000000000600082015250565b6000611a35601483611822565b9150611a40826119ff565b602082019050919050565b60006020820190508181036000830152611a6481611a28565b9050919050565b7f4b206d7573742062652067726561746572207468616e206f6e652e0000000000600082015250565b6000611aa1601b83611822565b9150611aac82611a6b565b602082019050919050565b60006020820190508181036000830152611ad081611a94565b9050919050565b7f4e487b7100000000000000000000000000000000000000000000000000000000600052604160045260246000fd5b7f4e487b7100000000000000000000000000000000000000000000000000000000600052603260045260246000fd5b600081519050611b44816117c9565b92915050565b600060208284031215611b6057611b5f61168c565b5b6000611b6e84828501611b35565b91505092915050565b7f6e6f2072616e646f6d206e756d62657220726563656976656400000000000000600082015250565b6000611bad601983611822565b9150611bb882611b77565b602082019050919050565b60006020820190508181036000830152611bdc81611ba0565b9050919050565b600081905092915050565b50565b6000611bfe600083611be3565b9150611c0982611bee565b600082019050919050565b6000611c1f82611bf1565b9150819050919050565b6000611c34826115b0565b9150611c3f836115b0565b925082821015611c5257611c5161189f565b5b828203905092915050565b7f4e487b7100000000000000000000000000000000000000000000000000000000600052601260045260246000fd5b6000611c97826115b0565b9150611ca2836115b0565b925082611cb257611cb1611c5d565b5b828206905092915050565b6000611cc8826115b0565b9150611cd3836115b0565b925082611ce357611ce2611c5d565b5b828204905092915050565b7f4e487b7100000000000000000000000000000000000000000000000000000000600052603160045260246000fd5b7f5061757361626c653a2070617573656400000000000000000000000000000000600082015250565b6000611d53601083611822565b9150611d5e82611d1d565b602082019050919050565b60006020820190508181036000830152611d8281611d46565b9050919050565b6000611d94826115b0565b9150611d9f836115b0565b9250817fffffffffffffffffffffffffffffffffffffffffffffffffffffffffffffffff0483118215151615611dd857611dd761189f565b5b828202905092915050565b7f6578697374652064656a61000000000000000000000000000000000000000000600082015250565b6000611e19600b83611822565b9150611e2482611de3565b602082019050919050565b60006020820190508181036000830152611e4881611e0c565b9050919050565b7f5061757361626c653a206e6f7420706175736564000000000000000000000000600082015250565b6000611e85601483611822565b9150611e9082611e4f565b602082019050919050565b60006020820190508181036000830152611eb481611e78565b905091905056fea264697066735822122037e79ab86659e2183e5e7ba81f9fc93dabacff744e9bfdd61045cc736d4a99d164736f6c634300080a0033",
  "immutableReferences": {},
  "source": "// SPDX-License-Identifier: MIT\r\npragma solidity >=0.4.22 <0.9.0;\r\nimport \"@openzeppelin/contracts/access/Ownable.sol\";\r\nimport \"@openzeppelin/contracts/security/Pausable.sol\";\r\nimport \"./SortitionSumTreeFactory.sol\";\r\nimport \"./FalseRandomNumber.sol\";\r\n\r\n/// Add ownable et pauseable\r\n\r\ncontract SumTreeLottery is Ownable, Pausable  {\r\n        \r\n        uint lotteryLength;\r\n        address rng;\r\n        uint lotteriesCount;\r\n        uint UserIdCount;\r\n        bytes32 currentLottery;\r\n    \r\n        //mapping lotteries\r\n        mapping(bytes32 => Lottery) lotteries;               \r\n        mapping(address => bytes32) sumTreeIdByAddress;\r\n        mapping(bytes32 => address) addressBySumTreeId;\r\n        SortitionSumTreeFactory.SortitionSumTrees lotterieTrees;\r\n\r\n        struct Lottery{            \r\n            bytes32 sumTree_key;            \r\n            uint endTime;\r\n        }\r\n\r\n        constructor(address _rngContract, uint _lotteryLength){\r\n            lotteryLength = _lotteryLength ;\r\n            rng=_rngContract;\r\n            UserIdCount=1;\r\n            newLottery();\r\n        }\r\n\r\n        function setRngContract(address _newAddress) public {\r\n\r\n\r\n        }\r\n\r\n\r\n\r\n        // create new Lottery(key, time)\r\n        function newLottery() internal returns (bytes32){\r\n            bytes32 key = bytes32(lotteriesCount);\r\n            Lottery storage lot = lotteries[key];\r\n            require (lot.endTime==0,\"existe deja\");\r\n            lot.sumTree_key = key;\r\n            lot.endTime= block.timestamp + lotteryLength;\r\n            SortitionSumTreeFactory.createTree(lotterieTrees,key, 2);\r\n            currentLottery = key;\r\n            lotteriesCount++;\r\n            return key;\r\n        }\r\n\r\n        // si depot declenche update => le faire deposer sur lotterie suivant ou ne pas deposer?\r\n        // deposit   (pauseable)\r\n        function deposit() payable external returns(bytes32){\r\n            uint newValue=msg.value;\r\n\r\n            // update if Lottery closed\r\n            if(lotteries[currentLottery].endTime < block.timestamp)\r\n            {         \r\n                bytes32 ret= update();   \r\n                return ret;\r\n            }\r\n\r\n            /// si l'utilisateur n'a pas dj un ID suite  un dpot prcedent\r\n            if(sumTreeIdByAddress[msg.sender]==0){\r\n                sumTreeIdByAddress[msg.sender] = bytes32(UserIdCount);\r\n                addressBySumTreeId[bytes32(UserIdCount)] = msg.sender;\r\n                UserIdCount++;\r\n            } else\r\n            {                \r\n                uint stake = SortitionSumTreeFactory.stakeOf(lotterieTrees,currentLottery,sumTreeIdByAddress[msg.sender]);\r\n                newValue =  newValue + stake;   \r\n            }\r\n            SortitionSumTreeFactory.set(lotterieTrees, currentLottery, newValue, sumTreeIdByAddress[msg.sender]);     \r\n            return 'BET';\r\n        }\r\n\r\n\r\n      \r\n        function update() internal returns(bytes32 ){ \r\n            _pause();\r\n            ////  TODO number random generator\r\n            uint rngNum = 0;\r\n            rngNum =  FalseRandomNumber.getRNGNumber();\r\n         \r\n\r\n            require(rngNum!=0,\"no random number received\");\r\n            // TODO  formula to find winner\r\n            bytes32 winnerID = SortitionSumTreeFactory.draw(lotterieTrees, currentLottery,rngNum);\r\n\r\n           (bool success, bytes memory data) = addressBySumTreeId[winnerID].call{value:SortitionSumTreeFactory.total(lotterieTrees,currentLottery)}(\"\");\r\n             if (success == false)\r\n                    {                     \r\n                        _pause();\r\n                    }                   \r\n            \r\n            newLottery();\r\n            _unpause();\r\n            return (winnerID);\r\n        }\r\n        \r\n        function getStake(address staker) external view returns (uint){\r\n                bytes32 stakerID= sumTreeIdByAddress[staker];\r\n                uint stake = SortitionSumTreeFactory.stakeOf(lotterieTrees,currentLottery,stakerID);\r\n                return stake;\r\n        }\r\n\r\n        function getCurrentLottery() external view returns(Lottery memory ){\r\n            return  lotteries[currentLottery];\r\n        }\r\n\r\n        function getLotteryLength() external view returns(uint){\r\n            return  lotteryLength;\r\n        }\r\n\r\n        function getLottery(bytes32 key)external view returns (Lottery memory){\r\n            return  lotteries[key];\r\n        }\r\n\r\n        // setLengthLottery\r\n        function setLotteryLength(uint newLength) payable external onlyOwner\r\n        {\r\n            lotteryLength= newLength;\r\n        }\r\n\r\n        \r\n        function getEndTime() external view returns (uint){\r\n            return lotteries[currentLottery].endTime; \r\n        }\r\n}\r\n",
  "sourcePath": "E:\\Workbench_Moula\\crypto\\dev\\Lottery\\contracts\\SumTreeLottery.sol",
  "compiler": {
    "name": "solc",
    "version": "0.8.10+commit.fc410830.Emscripten.clang"
  },
  "schemaVersion": "3.4.4",
  "updatedAt": "2022-04-02T12:41:18.735Z",
  "devdoc": {
    "kind": "dev",
    "methods": {
      "owner()": {
        "details": "Returns the address of the current owner."
      },
      "paused()": {
        "details": "Returns true if the contract is paused, and false otherwise."
      },
      "renounceOwnership()": {
        "details": "Leaves the contract without owner. It will not be possible to call `onlyOwner` functions anymore. Can only be called by the current owner. NOTE: Renouncing ownership will leave the contract without an owner, thereby removing any functionality that is only available to the owner."
      },
      "transferOwnership(address)": {
        "details": "Transfers ownership of the contract to a new account (`newOwner`). Can only be called by the current owner."
      }
    },
    "version": 1
  },
  "userdoc": {
    "kind": "user",
    "methods": {},
    "notice": "Add ownable et pauseable",
    "version": 1
  }
}